:020000040800F2
:1000000000400020850F0008C90F0008CF16000827
:1000100000000000000000000000000000000000E0
:10002000000000000000000000000000C90F0008F0
:100030000000000000000000C90F0008C90F000800
:10004000C90F0008C90F0008C90F0008C90F000830
:10005000C90F00081D0E0008C90F0008C90F0008CD
:10006000C90F0008C90F0008C90F0008C90F000810
:10007000C90F0008C90F0008C90F0008C90F000800
:10008000C90F00082D0F0008E90E0008C90F00086D
:10009000C90F0008C90F0008C90F0008C90F0008E0
:1000A000C90F0008C90F0008C90F0008FD050008A6
:1000B000C90F0008C90F0008C90F0008C90F0008C0
:1000C0005FF808F180B582B000AF7860134B1B7801
:1000D0005A1CD1B2114A11701A007B68D9B2104B68
:1000E00099540E4B1B781A000D4B002199540B4B61
:1000F0001B7801330F2B05D87B680A2B02D07B6855
:10010000002B08D1054B00221A70054B0022190064
:10011000042001F0D3FABD4602B080BD5404002093
:100120004404002080B588B000AF78600023FB61F4
:100130000023BB6100237B6100233B610023FB6044
:100140008A4B5B680C221340FB61FB69042B0CD0CB
:1001500002D8002B05D03AE0082B0AD00C2B32D065
:1001600035E07B68824A1A6035E07B68804A1A6015
:1001700031E07E4B5A68F0239B031340BB617B4BFD
:100180005A68C0235B0213407B61BB699B0C02333E
:10019000BB617B69002B05D1BB69764A5A437B68FA
:1001A0001A6018E0714BDB6A0F22134001333B6188
:1001B00039696F4801F058FC03001A00BB695A43C3
:1001C0007B681A6007E07B686B4A1A6003E07B6813
:1001D000674A1A60C046654B5B68F0221340FB61BA
:1001E000FB691B09FB61654AFB69D3181B78DBB20D
:1001F000FB607B681A68FB68DA407B685A605B4B7F
:100200005A68E023DB001340FB61FB691B0AFB61BA
:100210005A4AFB69D3181B78DBB2FB607B685A68CB
:10022000FB68DA407B689A60504B1A6B80235B0056
:10023000134003D17B68524ADA6010E04B4B5A6896
:100240008023DB01134005D17B689B685A087B68DB
:10025000DA6004E07B689B689A087B68DA60434B4D
:100260001B6B4022134003D17B68464A1A6103E0AE
:100270007B68802212021A613C4B1B6B10221340D8
:1002800003D17B683A4A5A6103E07B681A687B684D
:100290005A61364B1B6B0322134004D17B689A686A
:1002A0007B689A611EE0314B1B6B03221340012BCC
:1002B00004D17B681A687B689A6113E02B4B1B6B37
:1002C00003221340022B04D17B68802212029A6120
:1002D00008E0264B1B6B03221340032B02D17B68E3
:1002E000234A9A61214B1A6BC0239B02134004D10D
:1002F0007B689A687B68DA6127E01C4B1A6BC02325
:100300009B021A4080235B029A4204D17B681A68E0
:100310007B68DA6119E0154B1A6BC0239B021A4007
:1003200080239B029A4204D17B6880221202DA6108
:100330000BE00E4B1A6BC0239B021A40C0239B029A
:100340009A4202D17B680A4ADA61084B1B6B802211
:10035000134003D17B68084A1A6203E07B681A687D
:100360007B681A62C046BD4608B080BD00100240DE
:1003700000127A0000093D00006CDC020000002041
:10038000809FD5001280000080B582B000AF0200CF
:10039000FB1D1A70064BFA1D127811001F220A402D
:1003A000012191400A001A60C046BD4602B080BDDE
:1003B00000E100E080B582B000AF0200FB1D1A70C2
:1003C000074AFB1D1B7819001F230B400121994090
:1003D0000B0019008023D150C046BD4602B080BD3D
:1003E00000E100E0B0B582B000AF02003960FB1D53
:1003F0001A70FB1D1B787F2B32D92F4CFB1D1B78ED
:100400001A000F231340083B99082B4AFB1D1B7849
:1004100018000F230340083B9B0806339B00D318AA
:1004200004331B68FA1D1278100003220240D20028
:10043000FF2090400200D2431A403B689B01FF20FE
:100440001840FB1D1B781D0003232B40DB00984048
:1004500003001A438B1D9B00E31804331A6027E046
:10046000164CFB1D1B785BB29B081449FA1D1278D1
:1004700052B29208C03292005258F91D0978080011
:1004800003210140C900FF2088400100C9431140F9
:100490003A689201FF201040FA1D127815000322DD
:1004A0002A40D200904002000A43C0339B001A51F8
:1004B000C046BD4602B0B0BD00ED00E000E100E086
:1004C00080B58CB000AF78600823FB181800FFF7E8
:1004D00029FE0823FB185B680949180001F0C4FADB
:1004E00003001A007B685343FB6202E0FB6A013B96
:1004F000FB62FB6A002BF9D1C046BD460CB080BD43
:100500001027000080B500AF074B074A5269E02171
:1005100009030A435A61054B044A126840210A4301
:100520001A60C046BD4680BD001002400008004869
:1005300080B500AF2B4B2B4AD26910210A43DA61F8
:10054000294B17221A85284B284ADA6203211120E9
:10055000FFF748FF1120FFF717FF224B214AD2690E
:1005600020210A43DA61224B17221A85204B0A22E6
:10057000DA6202211220FFF735FF1220FFF704FF95
:10058000184B184AD26901210A43DA618023DB053E
:1005900017221A858023DB05144ADA6202210F2014
:1005A000FFF720FF0F20FFF7EFFE124B114A926872
:1005B0001204120C9A60104B0F4A126801210A4370
:1005C0001A600D4B0C4A926801210A439A6001217E
:1005D0000520FFF707FF0520FFF7D6FEC046BD4602
:1005E00080BDC046001002400010004050C3000013
:1005F00000140040000001400004014080B582B0BA
:1006000000AF104BDB692022134014D00D4B9B8CA4
:100610009AB2FB1D1A70FB1D1B784D2B02D06D2B5F
:1006200000D00BE0084B1B78DBB20122D31ADAB200
:10063000054B1A7002E01B20FFF7BCFEC046BD460A
:1006400002B080BD003801405A04002080B59CB043
:1006500000AF78600A00FB1C1A700C23FB18002204
:100660001A60043360220021180001F0C7FAFB1C55
:100670001B78552B0CD17A6818490C23FB181800ED
:1006800000F0BEFF0C23FB18180001F0B1F920E0C8
:10069000FB1C1B784C2B0CD17A6811490C23FB18DE
:1006A000180000F0ADFF0C23FB18180001F0A0F9B2
:1006B0000FE0FB1C1B78492B0BD17A6809490C23EE
:1006C000FB18180000F09CFF0C23FB18180001F029
:1006D0008FF9C046BD461CB080BDC046F01C000866
:1006E000F81C0008001D000880B5DD4FBD4400AFB8
:1006F000F860B9607A600023D3229200BA181360C0
:100700000123D2229200BA1813600223D122920050
:10071000BA1813600323D0229200BA181360D14B89
:10072000D8229200BA18D218C8235B000021D150F9
:10073000CC4BD8229200BA18D218C9239B000021B2
:10074000D150D3239B00FB181B68D7229200BA1804
:100750001360BB681B68D6229200BA18136001238D
:10076000D5229200BA18136063E1D7239B00FB18CF
:100770001A68D3239B00FB181B689A4217D1D52314
:100780009B00FB181B689B00BA68D3181A68D62315
:100790009B00FB181B689A4200DC35E1D0239B00CC
:1007A000FB181B68D7229200BA1813602CE1D723DC
:1007B0009B00FB181A68D2239B00FB181B689A4207
:1007C00017D1D5239B00FB181B689B00BA68D31870
:1007D0001A68D6239B00FB181B689A4200DB13E1C2
:1007E000D1239B00FB181B68D7229200BA18136014
:1007F0000AE1D7239B00FB181A68D1239B00FB1842
:100800001B689A4200D07EE0D5239B00FB181B6832
:100810009B00BA68D3181A68D6239B00FB181B6884
:100820009A4230D1D3239B00FB181B68D722920039
:10083000BA1813608B4BD8229200BA18D218C92369
:100840009B00D358874AD82189008C46BC44624417
:1008500064339B00D3180433D6229200BA1812686E
:100860001A60804BD8229200BA18D218C9239B0074
:10087000D358591C7B4BD8229200BA18D218C923DE
:100880009B00D150C0E0D5239B00FB181B689B0048
:10089000BA68D3181A68D6239B00FB181B689A42C3
:1008A00000DCB1E0D0239B00FB181B68D72292002C
:1008B000BA1813606B4BD8229200BA18D218C92309
:1008C0009B00D358674AD82189008C46BC446244B7
:1008D00064339B00D3180433D6229200BA181268EE
:1008E0001A60604BD8229200BA18D218C9239B0014
:1008F000D358591C5B4BD8229200BA18D218C9237E
:100900009B00D15080E0D7239B00FB181A68D023AE
:100910009B00FB181B689A4276D1D5239B00FB18DD
:100920001B689B00BA68D3181A68D6239B00FB1873
:100930001B689A422DD1D2239B00FB181B68D7223B
:100940009200BA181360474BD8229200BA18D218F6
:10095000C8235B00D258434BD82189008C46BC4445
:1009600063449200D621890079180968D1503D4B23
:10097000D8229200BA18D218C8235B00D358591C49
:10098000384BD8229200BA18D218C8235B00D15035
:100990003AE0D5239B00FB181B689B00BA68D3186C
:1009A0001A68D6239B00FB181B689A422CDA2D4B41
:1009B000D8229200BA18D218C8235B00D258294B0B
:1009C000D82189008C46BC4463449200D62189001A
:1009D00079180968D150234BD8229200BA18D2183E
:1009E000C8235B00D358591C1E4BD8229200BA185A
:1009F000D218C8235B00D150D1239B00FB181B6881
:100A0000D7229200BA181360D5239B00FB181B68ED
:100A10009B00BA68D3181B68D6229200BA181360DC
:100A2000D5239B00FB181B680133D5229200BA180E
:100A30001360D5239B00FB181A687B689A4200DA82
:100A400093E6084BD8229200BA18D218CA239B000A
:100A50000549D1500023D4229200BA18136038E01F
:100A6000A0FCFFFFB4FCFFFF18FCFFFF2A4BD822BD
:100A700092009446BC446344D4229200BA1812688F
:100A80009200D258244BD82189007918C918CA235A
:100A90009B00CB589A4213DD1F4BD82292009446FC
:100AA000BC446344D4229200BA1812689200D15810
:100AB000194BD8229200BA18D218CA239B00D150E1
:100AC000D4239B00FB181B680133D4229200BA1870
:100AD0001360114BD8229200BA18D218C8235B00B9
:100AE000D258D4239B00FB181B689A42BEDCFA68DC
:100AF000094BD82189008C46BC446344100019007E
:100B0000CB239B001A0001F03BF8F868BD46D823C0
:100B10009B009D4480BDC046B4FCFFFF80B5694F7B
:100B2000BD4400AFF860B9607A603B60BB681A688A
:100B3000D3239B00FB181B68D218FB689A420EDB7C
:100B4000BB681A68D3239B00FB181B68D21AFB688A
:100B50009A4204DC3B681B685A1C3B681A60BB68FD
:100B60001A68FB689A4202DDBB68FA681A60BB68C3
:100B70001A68FB689A420ED07B681B689B00D222E1
:100B80009200BA181268D318FA681A607B681B685A
:100B90005A1C7B681A603B681B68052B00D08AE0F2
:100BA0007B681A68484BD02189008C46BC4463445A
:100BB000D2218900791809681800FFF795FD424B8A
:100BC000D0229200BA18D218CA239B00D3583F4AA9
:100BD00093426AD0D4239B00FB181B78552B1DD160
:100BE000394BD0229200BA18D218CA239B00D2588F
:100BF000374B1100180000F0EBFC334BD022920071
:100C0000BA18D218CA239B00D258D4239B00FB18D1
:100C10001B7819001000FFF719FD46E0D4239B0054
:100C2000FB181B784C2B1DD1274BD0229200BA18F1
:100C3000D218CA239B00D258264B1100180000F08E
:100C4000C7FC214BD0229200BA18D218CA239B00AD
:100C5000D258D4239B00FB181B7819001000FFF713
:100C6000F5FC22E0D4239B00FB181B78492B1CD1F8
:100C7000154BD0229200BA18D218CA239B00D25822
:100C8000154B1100180000F0A3FC0F4BD02292006E
:100C9000BA18D218CA239B00D258D4239B00FB1841
:100CA0001B7819001000FFF7D1FC3B6800221A6086
:100CB0007B6800221A60C0461800BD46D0239B0006
:100CC0009D4480BDC0FCFFFFD4FCFFFF18FCFFFF6C
:100CD000081D0008141D0008201D000890B5EDB087
:100CE00004AFFFF70FFCFFF723FC00F035FE454A89
:100CF000444B9B899BB201210B439BB29381424A97
:100D0000414B9B8A9BB208210B439BB293823D4A85
:100D10003C4B1B889BB201210B439BB21380FA23EF
:100D20005B001800FFF7CCFB384B1B889BB21D21E2
:100D3000180000F099FE03009BB2CC225200BA18B2
:100D400013600023CA225200BA1813600023C8227D
:100D50005200BA18136096235B001800FFF7B0FB2F
:100D60002A4B1B889BB21D21180000F07DFE03005A
:100D70009BB2CE225200BA181360CE235B00FB1840
:100D80001A68234B1100180000F022FC214B1B783D
:100D9000DBB2002B0FD196235B001800FFF790FB0E
:100DA0001D4B1A78CE235B00FB181B68110018003E
:100DB000FFF74CFCCFE7174B1B78DBB2012BCAD1F6
:100DC00096235B001800FFF77BFB134B1B78C822B0
:100DD0005200BC18CA225200BA18CC214900791816
:100DE000CE204000381800680293032301933B0093
:100DF00000932300FFF792FE96235B001800FFF795
:100E00005FFBA8E7001400400008004858040020D9
:100E10002C1D00085A0400201000002080B500AFEF
:100E20002D4A2D4B5B6901210B4053614BD02B4B5D
:100E30001B78DBB2002B17D1294A294B1B889BB2A8
:100E400001210B439BB21380244B01221A70224BC9
:100E5000214A926801218A439A601F4B1E4AD26838
:100E600001210A43DA602EE01D4A1D4B1B889BB20C
:100E700001218B439BB21380194B5B6A9AB2194BC9
:100E80001A80174B00225A62144B00221A70124B20
:100E9000114AD26801218A43DA600F4B0E4A9268E8
:100EA00001210A439A600E4A0D4B9B899BB2012196
:100EB0000B439BB293810A4A094B1B889BB20121C9
:100EC0000B439BB21380044B034A526901210A432E
:100ED0005A61C046BD4680BD000401405604002052
:100EE000001000405804002080B500AF0D4A0D4BA3
:100EF0001B8A9BB201218B439BB213820A4A0A4B85
:100F00009B8A9BB208218B439BB29382054A054B77
:100F10009B899BB201218B439BB29381C046BD4606
:100F200080BDC046001400400008004880B500AFF6
:100F3000114A114B1B8A9BB201218B439BB2138236
:100F40000E4A0E4B9B8A9BB208210B439BB29382A5
:100F50000B4A0B4B9B899BB201210B439BB29381A4
:100F6000074A074B1B889BB201210B439BB213809E
:100F7000C046BD4680BDC046001000400008004885
:100F800000140040002103E00A4B5B584350043139
:100F900009480A4B42189A42F6D3094A02E0002354
:100FA00013600432074B9A42F9D300F09BFBFFF722
:100FB00095FE7047DC1D000800000020440400205E
:100FC000440400205C040020FEE7000080B582B0ED
:100FD00000AF0200FB1D1A70FB1D1B781800FFF705
:100FE00071F8C046BD4602B080BDC04680B582B033
:100FF00000AF78600A00FB1C1A707B68FA1C12783C
:101000001A7001231800BD4602B080BD80B584B0BF
:1010100000AF786039600023FB600AE07B685A1CEF
:101020007A603A68511C396012781A70FB68013393
:10103000FB603B681B78002BF0D1FB681800BD46B5
:1010400004B080BD90B587B000AFF8607A603B60B7
:101050000B23FB180A1C1A7000237B617B68013B81
:101060007B603B68092B26D93B680A21180000F0F9
:10107000FBFC03001C007A680B23FB181978F86846
:101080002300FFF7DFFF03007B617B69FA68D31859
:10109000FB6013E00B23FB181A78FB6811001800A3
:1010A000FFF7A4FFFB680133FB607B6901337B61C1
:1010B0007B68013B7B607B68002BEBDC3B680A2193
:1010C000180000F057FD0B00DBB23033DAB2FB68DA
:1010D00011001800FFF78AFF02007B699B187B61F3
:1010E0007B691800BD4607B090BDC04690B587B07B
:1010F00000AFF8607A603B600B23FB180A1C1A7083
:1011000000237B613B68002B03DA3B685B423B6159
:1011100001E03B683B617B68013B7B603B69092BDD
:101120002BD93B68002B12DA3B690A21180000F02A
:101130009BFC03005B421C007A680B23FB181978A8
:10114000F8682300FFF7D2FF03007B6110E03B69E2
:101150000A21180000F088FC03001C007A680B23A9
:10116000FB181978F8682300FFF7C0FF03007B61C4
:101170007B69FA68D318FB6029E03B68002B14DA1E
:101180007B68013B7B6010E00B23FB181A78FB683F
:1011900011001800FFF72AFFFB680133FB607B6931
:1011A00001337B617B68013B7B607B68002BEBDC60
:1011B0003B68002B0BDAFB682D211800FFF716FFA8
:1011C00002007B699B187B61FB680133FB603B6914
:1011D0000A21180000F0CEFC0B00DBB23033DAB28B
:1011E000FB6811001800FFF701FF02007B699B18E4
:1011F0007B617B691800BD4607B090BDB0B588B073
:1012000002AFF86008007A6019000B23FB18021C7B
:101210001A700A23FB180A1C1A7000237B617B6872
:10122000013B7B60BB6A1B0928D0BB6A1B090A22F1
:10123000BA1815787C680B22BA181178F8680093F0
:101240002B002200FFF7DAFF02007B699B187B610D
:101250007B69FA68D318FB6013E00B23FB181A783C
:10126000FB6811001800FFF7C1FEFB680133FB604B
:101270007B6901337B617B68013B7B607B68002B72
:10128000EBDCBB6A0F221340092B0CD8BB6ADBB224
:101290000F221340DBB23033DAB2FB6811001800C2
:1012A000FFF7A4FE1DE00A23FB181B78002B0CD0CF
:1012B000BB6ADBB20F221340DBB23733DAB2FB6812
:1012C00011001800FFF792FE0BE0BB6ADBB20F22A1
:1012D0001340DBB25733DAB2FB6811001800FFF796
:1012E00085FE7B6901337B617B691800BD4606B0D2
:1012F000B0BDC04690B58BB002AFF860B9607A60FF
:101300003B600023BB6100237B61FB68002B00D1A5
:10131000E2E0FB6800221A70DEE07B681B78252B78
:101320000BD0FB685A1CFA607A68511C79601278FD
:101330001A707B6901337B61CEE07B6801331B78D7
:10134000252B0BD1FB685A1CFA6025221A707B688A
:1013500002337B607B6901337B61BDE01F23FB1897
:1013600020221A701E23FB1800221A707B6801339A
:101370007B607B681B78302B1AD11F23FB1830222F
:101380001A707B6801337B6012E01E23FB181B7808
:101390001A1C9200D318DB18DAB27B681B78D318BA
:1013A000DAB21E23FB18303A1A707B6801337B6077
:1013B0007B681B782F2B03D97B681B78392BE4D9EA
:1013C0001E23FB181A787B69D3181A00BB689A424F
:1013D00007D9BB68D9B27B69DAB21E23FB188A1A17
:1013E0001A707B681B78583B202B67D89A004A4BB1
:1013F000D3181B689F461E23FB181C783B681A1DD8
:101400003A601A681F23FB181978F8681300220045
:10141000FFF76CFE0300BB6153E01E23FB181C7832
:101420003B681A1D3A601A681F23FB181978F86880
:1014300013002200FFF706FE0300BB6141E01E23FC
:10144000FB181C783B681A1D3A601B681F22BA18EB
:101450001178F868009300232200FFF7CFFE030005
:10146000BB612EE01E23FB181C783B681A1D3A60F6
:101470001B681F22BA181178F86800930123220014
:10148000FFF7BCFE0300BB611BE03B681A1D3A601E
:101490001A68FB6811001800FFF7B8FD0300BB6174
:1014A0000FE03B681A1D3A601B68DAB2FB68110056
:1014B0001800FFF79BFD0300BB6102E001235B42C4
:1014C00025E07B6801337B60BB69FA68D318FB6059
:1014D0007A69BB69D3187B617B681B78002B04D0C9
:1014E0007A69BB689A4200D217E77A69BB689A4268
:1014F00003D2FB6800221A7008E0FB68013BFB6026
:10150000FB6800221A707B69013B7B617B691800D4
:10151000BD4609B090BDC046341D000880B584B0FA
:1015200000AFF860B9607A607B68BA68F8686421D7
:10153000FFF7E0FE03001800BD4604B080BDC046C2
:1015400090B5A7B000AFF860B9607A601023FB18BF
:10155000134A13CA13C313CA13C313CA13C37A6833
:10156000B9683423FB181800FFF7D8FF0300632B7A
:1015700009DD0C4B1B68DA681023FB1811001800FA
:1015800000F076F8FEE7FA683423FB181100180023
:1015900000F06EF803001800BD4627B090BDC046AD
:1015A000B81D00084004002080B582B000AF78600C
:1015B0003960064B1B689B683A6879681800FFF72A
:1015C000BFFF03001800BD4602B080BD40040020EC
:1015D0000FB480B582B000AF1423FB183B603A68AB
:1015E0003B6911001800FFF7DFFF03007B607B6899
:1015F0001800BD4602B080BC08BC04B01847C04605
:101600000EB480B585B000AF78602023FB18BB60B6
:10161000BA68F9697B681800FFF780FF0300FB6078
:10162000FB681800BD4605B080BC08BC03B0184775
:1016300080B582B000AF786039600C4B1B689A6847
:101640003B689A4205D0094B1B68DA683B689A42AE
:1016500006D17B68DBB21800FFF7B8FC7B6801E0BD
:1016600001235B421800BD4602B080BD400400204B
:1016700080B584B000AF786039600023FB6013E070
:101680007B681B781A003B6819001000FFF7D0FF39
:101690000300013302D101235B420AE0FB680133FE
:1016A000FB607B6801337B607B681B78002BE7D194
:1016B000FB681800BD4604B080BDC046ABBE01E06B
:1016C00000207047002A00D0106001207047069863
:1016D0000188034A914202D1043006907047FEE728
:1016E000ABBE000080B500AF1B4B1B4A1268012146
:1016F0000A431A60184B184A526818490A405A603F
:10170000154B154A126816490A401A60124B124AC4
:10171000126814490A401A600F4B0F4A5268124966
:101720000A405A600C4B0C4AD26A0F218A43DA6293
:10173000094B094A126B0D490A401A63064B064AC7
:10174000526B01218A435A63034B00229A6000F0D6
:101750000FF8C046BD4680BD001002400CB8FFF82F
:10176000FFFFF6FEFFFFFBFFFFFFC0FFACFEFFFF2A
:1017700080B582B000AF00237B6000233B60314B1B
:10178000304A1268802149020A431A602D4B1A68B8
:1017900080239B0213403B607B6801337B603B6886
:1017A000002B04D17A68A023DB009A42EED1254BAE
:1017B0001A6880239B02134002D001233B6001E0A2
:1017C00000233B603B68012B38D11F4B11221A606C
:1017D0001C4B1C4A52685A601A4B1A4A52685A608B
:1017E000184B184A526819490A405A60154B154A55
:1017F0005268882149030A435A60124B114A126801
:10180000802149040A431A60C0460E4B1A6880239F
:101810009B041340F9D00B4B0A4A526803218A43B8
:101820005A60084B074A526802210A435A60C04670
:10183000044B5B680C221340082BF9D1C046BD460F
:1018400002B080BD0010024000200240FF7FC0FFB8
:1018500080B582B000AF0200FB1D1A70064BFA1D66
:10186000127811001F220A40012191400A001A60DB
:10187000C046BD4602B080BD00E100E0B0B582B018
:1018800000AF02003960FB1D1A70FB1D1B787F2B17
:1018900032D92F4CFB1D1B781A000F231340083B35
:1018A00099082B4AFB1D1B7818000F230340083BA7
:1018B0009B0806339B00D31804331B68FA1D12786B
:1018C000100003220240D200FF2090400200D243C9
:1018D0001A403B689B01FF201840FB1D1B781D0030
:1018E00003232B40DB00984003001A438B1D9B0011
:1018F000E31804331A6027E0164CFB1D1B785BB21B
:101900009B081449FA1D127852B29208C032920014
:101910005258F91D0978080003210140C900FF2031
:1019200088400100C94311403A689201FF201040ED
:10193000FA1D1278150003222A40D20090400200BE
:101940000A43C0339B001A51C046BD4602B0B0BD29
:1019500000ED00E000E100E080B500AF9023DB0582
:101960009022D20512681D490A40A02189030A432A
:101970001A609023DB059022D205526A18490A406A
:10198000882149000A435A62164B164A92698021FF
:10199000C9010A439A61144B144A9A81124B0D22D1
:1019A0001A60C046104BDB6940221340FAD00E4B40
:1019B0000D4A126A40210A431A620B4B0A4A126806
:1019C00020210A431A6000211B20FFF757FF1B202C
:1019D000FFF73EFFC046BD4680BDC046FFFFC3FFC8
:1019E0000FF0FFFF001002400038014041030000EB
:1019F00080B584B000AF78607B68180000F044F9CF
:101A000002000B23FB181A700023FB6009E0FB683F
:101A10007A68D3181B78180000F00EF8FB680133C1
:101A2000FB600B23FB181A78FB689A42EFDCC04678
:101A3000BD4604B080BDC04680B582B000AF020094
:101A4000FB1D1A70074AFB1D1B789BB21385C0460D
:101A5000044BDB6940221340FAD0C046BD4602B0B9
:101A600080BDC04600380140002243088B4274D339
:101A700003098B425FD3030A8B4244D3030B8B428F
:101A800028D3030C8B420DD3FF22090212BA030C98
:101A90008B4202D31212090265D0030B8B4219D379
:101AA00000E0090AC30B8B4201D3CB03C01A524199
:101AB000830B8B4201D38B03C01A5241430B8B42E1
:101AC00001D34B03C01A5241030B8B4201D30B03CA
:101AD000C01A5241C30A8B4201D3CB02C01A5241F1
:101AE000830A8B4201D38B02C01A5241430A8B42B4
:101AF00001D34B02C01A5241030A8B4201D30B029D
:101B0000C01A5241CDD2C3098B4201D3CB01C01AB6
:101B1000524183098B4201D38B01C01A52414309C0
:101B20008B4201D34B01C01A524103098B4201D3AE
:101B30000B01C01A5241C3088B4201D3CB00C01A1B
:101B4000524183088B4201D38B00C01A5241430893
:101B50008B4201D34B00C01A5241411A00D20146B8
:101B6000524110467047FFE701B5002000F006F82B
:101B700002BDC0460029F7D076E770477047C046DF
:101B800070B50F2A32D90C0004430B00A40731D1E1
:101B900015000400103D2D0901352D0149191E685D
:101BA00026605E6866609E68A660DE681033E66048
:101BB00010349942F3D10F2345191340032B1BD93D
:101BC0001C1F0023A4080134A400CE58EE50043397
:101BD0009C42FAD103232D1909191A4005D000237C
:101BE000CC5CEC5401339A42FAD170BD0500002A56
:101BF000F5D1FAE70500F2E71A00F8E770B58307B8
:101C00003FD0541E002A3BD0CEB20300032503E090
:101C1000621E002C34D0140001335A1E16702B4261
:101C2000F6D1032C24D9FF250D402A0215432A049E
:101C300015430F2C11D92600103E36090136360106
:101C40001A009B19156055609560D560103293425B
:101C5000F8D10F221440032C0AD9261FB6080136EA
:101C6000B6001A009B1920C29342FCD103221440F3
:101C7000002C05D0C9B21C19197001339C42FBD14C
:101C800070BD14000300CCE710B5830727D003789C
:101C9000002B26D00300032102E01A78002A1CD072
:101CA00001330B42F9D119680F4A104C8A188A4344
:101CB00022420FD1043319680B4A8A188A43224200
:101CC00008D104331968084A8A188A432242F1D09D
:101CD00000E001331A78002AFBD1181A10BD030066
:101CE000E1E70020FAE7C046FFFEFEFE808080802C
:101CF000553A25753B0000004C3A25753B00000025
:101D0000493A25753B00000042445320553A2025AE
:101D1000640A0000424453204C3A2025640A000023
:101D200042445320493A2025640A0000553A2025B0
:101D3000640A000064140008BC140008BC14000805
:101D4000BC140008BC140008BC140008BC14000833
:101D5000BC140008BC140008BC140008BC14000823
:101D6000A2140008F6130008BC140008BC140008F4
:101D7000BC140008BC140008F6130008BC140008CA
:101D8000BC140008BC140008BC140008BC140008F3
:101D9000BC140008BC140008BC140008BC140008E3
:101DA0008A140008BC1400081A140008BC140008A7
:101DB000BC1400083E140008737464696F2E633A03
:101DC00020696E637265617365204D41585F53549D
:0C1DD00052494E475F53495A450A0D0026
:101DDC0000000000010203040102030406070809C5
:101DEC005500000000000000000000000000000092
:101DFC0001000000000000000000000000000000D6
:101E0C0000000000000000000000000000000000C6
:101E1C0000000000000000000000000000000000B6
:101E2C0000000000000000000000000000000000A6
:101E3C000000000000000000000000000000000096
:04221C001800002086
:0400000508000000EF
:00000001FF
